{
  "_format": "hh-sol-artifact-1",
  "contractName": "TRECVault",
  "sourceName": "contracts/TRECVault.sol",
  "abi": [
    {
      "inputs": [
        {
          "internalType": "address",
          "name": "_usdcAddress",
          "type": "address"
        }
      ],
      "stateMutability": "nonpayable",
      "type": "constructor"
    },
    {
      "inputs": [
        {
          "internalType": "address",
          "name": "owner",
          "type": "address"
        }
      ],
      "name": "OwnableInvalidOwner",
      "type": "error"
    },
    {
      "inputs": [
        {
          "internalType": "address",
          "name": "account",
          "type": "address"
        }
      ],
      "name": "OwnableUnauthorizedAccount",
      "type": "error"
    },
    {
      "anonymous": false,
      "inputs": [
        {
          "indexed": true,
          "internalType": "address",
          "name": "borrower",
          "type": "address"
        },
        {
          "indexed": false,
          "internalType": "uint256",
          "name": "amount",
          "type": "uint256"
        }
      ],
      "name": "BondStaked",
      "type": "event"
    },
    {
      "anonymous": false,
      "inputs": [
        {
          "indexed": true,
          "internalType": "address",
          "name": "lender",
          "type": "address"
        },
        {
          "indexed": false,
          "internalType": "uint256",
          "name": "amount",
          "type": "uint256"
        }
      ],
      "name": "Deposited",
      "type": "event"
    },
    {
      "anonymous": false,
      "inputs": [
        {
          "indexed": true,
          "internalType": "address",
          "name": "borrower",
          "type": "address"
        },
        {
          "indexed": false,
          "internalType": "uint256",
          "name": "slashedAmount",
          "type": "uint256"
        }
      ],
      "name": "Liquidated",
      "type": "event"
    },
    {
      "anonymous": false,
      "inputs": [
        {
          "indexed": true,
          "internalType": "address",
          "name": "borrower",
          "type": "address"
        },
        {
          "indexed": true,
          "internalType": "address",
          "name": "bitGoWallet",
          "type": "address"
        },
        {
          "indexed": false,
          "internalType": "uint256",
          "name": "amount",
          "type": "uint256"
        }
      ],
      "name": "LoanIssued",
      "type": "event"
    },
    {
      "anonymous": false,
      "inputs": [
        {
          "indexed": true,
          "internalType": "address",
          "name": "previousOwner",
          "type": "address"
        },
        {
          "indexed": true,
          "internalType": "address",
          "name": "newOwner",
          "type": "address"
        }
      ],
      "name": "OwnershipTransferred",
      "type": "event"
    },
    {
      "inputs": [
        {
          "internalType": "address",
          "name": "",
          "type": "address"
        }
      ],
      "name": "activeLoans",
      "outputs": [
        {
          "internalType": "uint256",
          "name": "",
          "type": "uint256"
        }
      ],
      "stateMutability": "view",
      "type": "function"
    },
    {
      "inputs": [
        {
          "internalType": "address",
          "name": "",
          "type": "address"
        }
      ],
      "name": "borrowerBonds",
      "outputs": [
        {
          "internalType": "uint256",
          "name": "",
          "type": "uint256"
        }
      ],
      "stateMutability": "view",
      "type": "function"
    },
    {
      "inputs": [
        {
          "internalType": "uint256",
          "name": "_amount",
          "type": "uint256"
        }
      ],
      "name": "depositLiquidity",
      "outputs": [],
      "stateMutability": "nonpayable",
      "type": "function"
    },
    {
      "inputs": [
        {
          "internalType": "address",
          "name": "_borrower",
          "type": "address"
        },
        {
          "internalType": "address",
          "name": "_bitGoWallet",
          "type": "address"
        },
        {
          "internalType": "uint256",
          "name": "_loanAmount",
          "type": "uint256"
        }
      ],
      "name": "issueLoan",
      "outputs": [],
      "stateMutability": "nonpayable",
      "type": "function"
    },
    {
      "inputs": [
        {
          "internalType": "address",
          "name": "",
          "type": "address"
        }
      ],
      "name": "lenderDeposits",
      "outputs": [
        {
          "internalType": "uint256",
          "name": "",
          "type": "uint256"
        }
      ],
      "stateMutability": "view",
      "type": "function"
    },
    {
      "inputs": [],
      "name": "owner",
      "outputs": [
        {
          "internalType": "address",
          "name": "",
          "type": "address"
        }
      ],
      "stateMutability": "view",
      "type": "function"
    },
    {
      "inputs": [],
      "name": "renounceOwnership",
      "outputs": [],
      "stateMutability": "nonpayable",
      "type": "function"
    },
    {
      "inputs": [
        {
          "internalType": "address",
          "name": "_borrower",
          "type": "address"
        },
        {
          "internalType": "uint256",
          "name": "_recoveredUSDC",
          "type": "uint256"
        },
        {
          "internalType": "uint256",
          "name": "_shortfallAmount",
          "type": "uint256"
        }
      ],
      "name": "slashAndRecover",
      "outputs": [],
      "stateMutability": "nonpayable",
      "type": "function"
    },
    {
      "inputs": [],
      "name": "stakeBond",
      "outputs": [],
      "stateMutability": "payable",
      "type": "function"
    },
    {
      "inputs": [],
      "name": "totalPoolLiquidity",
      "outputs": [
        {
          "internalType": "uint256",
          "name": "",
          "type": "uint256"
        }
      ],
      "stateMutability": "view",
      "type": "function"
    },
    {
      "inputs": [
        {
          "internalType": "address",
          "name": "newOwner",
          "type": "address"
        }
      ],
      "name": "transferOwnership",
      "outputs": [],
      "stateMutability": "nonpayable",
      "type": "function"
    },
    {
      "inputs": [],
      "name": "usdcToken",
      "outputs": [
        {
          "internalType": "contract IERC20",
          "name": "",
          "type": "address"
        }
      ],
      "stateMutability": "view",
      "type": "function"
    }
  ],
  "bytecode": "0x608060405234801561000f575f80fd5b50604051610a87380380610a8783398101604081905261002e916100d1565b338061005357604051631e4fbdf760e01b81525f600482015260240160405180910390fd5b61005c81610082565b50600180546001600160a01b0319166001600160a01b03929092169190911790556100fe565b5f80546001600160a01b038381166001600160a01b0319831681178455604051919092169283917f8be0079c531659141344cd1fd0a4f28419497f9722a3daafe3b4186f6b6457e09190a35050565b5f602082840312156100e1575f80fd5b81516001600160a01b03811681146100f7575f80fd5b9392505050565b61097c8061010b5f395ff3fe6080604052600436106100a5575f3560e01c80638da5cb5b116100625780638da5cb5b1461019157806399398358146101ad578063b316e689146101d8578063ba649839146101e0578063e8f003311461020b578063f2fde38b14610220575f80fd5b806311eac855146100a9578063315c7f2a146100e557806345f9208114610106578063565c87e314610125578063715018a61461015e57806376d58e1a14610172575b5f80fd5b3480156100b4575f80fd5b506001546100c8906001600160a01b031681565b6040516001600160a01b0390911681526020015b60405180910390f35b3480156100f0575f80fd5b506101046100ff366004610847565b61023f565b005b348015610111575f80fd5b50610104610120366004610877565b610335565b348015610130575f80fd5b5061015061013f3660046108b0565b60046020525f908152604090205481565b6040519081526020016100dc565b348015610169575f80fd5b50610104610540565b34801561017d575f80fd5b5061010461018c3660046108d0565b610553565b34801561019c575f80fd5b505f546001600160a01b03166100c8565b3480156101b8575f80fd5b506101506101c73660046108b0565b60026020525f908152604090205481565b6101046106d5565b3480156101eb575f80fd5b506101506101fa3660046108b0565b60056020525f908152604090205481565b348015610216575f80fd5b5061015060035481565b34801561022b575f80fd5b5061010461023a3660046108b0565b610774565b6102476107b1565b6001600160a01b0383165f908152600560205260409020546102b05760405162461bcd60e51b815260206004820152601b60248201527f4e6f20616374697665206c6f616e20746f206c6971756964617465000000000060448201526064015b60405180910390fd5b6001600160a01b0383165f90815260046020526040812080548392906102d79084906108fb565b90915550506001600160a01b0383165f8181526005602052604080822091909155517fa5ee7a2b0254fce91deed604506790ed7fa072d0b14cba4859c3bc8955b9caac906103289084815260200190565b60405180910390a2505050565b61033d6107b1565b6001600160a01b0383165f908152600460205260409020546103a15760405162461bcd60e51b815260206004820152601b60248201527f426f72726f77657220686173206e6f2073616665747920626f6e64000000000060448201526064016102a7565b8060035410156103f35760405162461bcd60e51b815260206004820152601b60248201527f4e6f7420656e6f756768205553444320696e2074686520706f6f6c000000000060448201526064016102a7565b6001600160a01b0383165f908152600560205260408120805483929061041a908490610914565b925050819055508060035f82825461043291906108fb565b909155505060015460405163a9059cbb60e01b81526001600160a01b038481166004830152602482018490529091169063a9059cbb906044016020604051808303815f875af1158015610487573d5f803e3d5ffd5b505050506040513d601f19601f820116820180604052508101906104ab9190610927565b6104ee5760405162461bcd60e51b8152602060048201526014602482015273131bd85b881d1c985b9cd9995c8819985a5b195960621b60448201526064016102a7565b816001600160a01b0316836001600160a01b03167f2a2739b1a143745ed1bb646af91335badc687fbb4f4a45ab53ededc8a1a8763b8360405161053391815260200190565b60405180910390a3505050565b6105486107b1565b6105515f6107dd565b565b5f81116105ac5760405162461bcd60e51b815260206004820152602160248201527f4465706f736974206d7573742062652067726561746572207468616e207a65726044820152606f60f81b60648201526084016102a7565b6001546040516323b872dd60e01b8152336004820152306024820152604481018390526001600160a01b03909116906323b872dd906064016020604051808303815f875af1158015610600573d5f803e3d5ffd5b505050506040513d601f19601f820116820180604052508101906106249190610927565b6106625760405162461bcd60e51b815260206004820152600f60248201526e151c985b9cd9995c8819985a5b1959608a1b60448201526064016102a7565b335f9081526002602052604081208054839290610680908490610914565b925050819055508060035f8282546106989190610914565b909155505060405181815233907f2da466a7b24304f47e87fa2e1e5a81b9831ce54fec19055ce277ca2f39ba42c49060200160405180910390a250565b5f341161071a5760405162461bcd60e51b815260206004820152601360248201527209aeae6e840e6e8c2d6ca40e6dedaca408aa89606b1b60448201526064016102a7565b335f9081526004602052604081208054349290610738908490610914565b909155505060405134815233907fd1abf1173d9287eccea1d3061b4c7a49b9d2be69ec0990f830c3e8a0f20a7d909060200160405180910390a2565b61077c6107b1565b6001600160a01b0381166107a557604051631e4fbdf760e01b81525f60048201526024016102a7565b6107ae816107dd565b50565b5f546001600160a01b031633146105515760405163118cdaa760e01b81523360048201526024016102a7565b5f80546001600160a01b038381166001600160a01b0319831681178455604051919092169283917f8be0079c531659141344cd1fd0a4f28419497f9722a3daafe3b4186f6b6457e09190a35050565b80356001600160a01b0381168114610842575f80fd5b919050565b5f805f60608486031215610859575f80fd5b6108628461082c565b95602085013595506040909401359392505050565b5f805f60608486031215610889575f80fd5b6108928461082c565b92506108a06020850161082c565b9150604084013590509250925092565b5f602082840312156108c0575f80fd5b6108c98261082c565b9392505050565b5f602082840312156108e0575f80fd5b5035919050565b634e487b7160e01b5f52601160045260245ffd5b8181038181111561090e5761090e6108e7565b92915050565b8082018082111561090e5761090e6108e7565b5f60208284031215610937575f80fd5b815180151581146108c9575f80fdfea2646970667358221220e12e995d7c0b06d41705a92707194145b06de4d9ad908a71e03aec2b19721a3164736f6c63430008180033",
  "linkReferences": {},
  "deployedLinkReferences": {}
}