{
  "_format": "hh-sol-artifact-1",
  "contractName": "TRECRegistry",
  "sourceName": "contracts/TRECRegistry.sol",
  "abi": [
    {
      "inputs": [
        {
          "internalType": "address",
          "name": "_bitgoValidator",
          "type": "address"
        }
      ],
      "stateMutability": "nonpayable",
      "type": "constructor"
    },
    {
      "inputs": [],
      "name": "ECDSAInvalidSignature",
      "type": "error"
    },
    {
      "inputs": [
        {
          "internalType": "uint256",
          "name": "length",
          "type": "uint256"
        }
      ],
      "name": "ECDSAInvalidSignatureLength",
      "type": "error"
    },
    {
      "inputs": [
        {
          "internalType": "bytes32",
          "name": "s",
          "type": "bytes32"
        }
      ],
      "name": "ECDSAInvalidSignatureS",
      "type": "error"
    },
    {
      "inputs": [
        {
          "internalType": "address",
          "name": "sender",
          "type": "address"
        },
        {
          "internalType": "uint256",
          "name": "tokenId",
          "type": "uint256"
        },
        {
          "internalType": "address",
          "name": "owner",
          "type": "address"
        }
      ],
      "name": "ERC721IncorrectOwner",
      "type": "error"
    },
    {
      "inputs": [
        {
          "internalType": "address",
          "name": "operator",
          "type": "address"
        },
        {
          "internalType": "uint256",
          "name": "tokenId",
          "type": "uint256"
        }
      ],
      "name": "ERC721InsufficientApproval",
      "type": "error"
    },
    {
      "inputs": [
        {
          "internalType": "address",
          "name": "approver",
          "type": "address"
        }
      ],
      "name": "ERC721InvalidApprover",
      "type": "error"
    },
    {
      "inputs": [
        {
          "internalType": "address",
          "name": "operator",
          "type": "address"
        }
      ],
      "name": "ERC721InvalidOperator",
      "type": "error"
    },
    {
      "inputs": [
        {
          "internalType": "address",
          "name": "owner",
          "type": "address"
        }
      ],
      "name": "ERC721InvalidOwner",
      "type": "error"
    },
    {
      "inputs": [
        {
          "internalType": "address",
          "name": "receiver",
          "type": "address"
        }
      ],
      "name": "ERC721InvalidReceiver",
      "type": "error"
    },
    {
      "inputs": [
        {
          "internalType": "address",
          "name": "sender",
          "type": "address"
        }
      ],
      "name": "ERC721InvalidSender",
      "type": "error"
    },
    {
      "inputs": [
        {
          "internalType": "uint256",
          "name": "tokenId",
          "type": "uint256"
        }
      ],
      "name": "ERC721NonexistentToken",
      "type": "error"
    },
    {
      "inputs": [],
      "name": "InvalidShortString",
      "type": "error"
    },
    {
      "inputs": [
        {
          "internalType": "address",
          "name": "owner",
          "type": "address"
        }
      ],
      "name": "OwnableInvalidOwner",
      "type": "error"
    },
    {
      "inputs": [
        {
          "internalType": "address",
          "name": "account",
          "type": "address"
        }
      ],
      "name": "OwnableUnauthorizedAccount",
      "type": "error"
    },
    {
      "inputs": [
        {
          "internalType": "string",
          "name": "str",
          "type": "string"
        }
      ],
      "name": "StringTooLong",
      "type": "error"
    },
    {
      "anonymous": false,
      "inputs": [
        {
          "indexed": true,
          "internalType": "address",
          "name": "owner",
          "type": "address"
        },
        {
          "indexed": true,
          "internalType": "uint256",
          "name": "tokenId",
          "type": "uint256"
        },
        {
          "indexed": false,
          "internalType": "string",
          "name": "ensName",
          "type": "string"
        }
      ],
      "name": "AgentRegistered",
      "type": "event"
    },
    {
      "anonymous": false,
      "inputs": [
        {
          "indexed": true,
          "internalType": "address",
          "name": "owner",
          "type": "address"
        },
        {
          "indexed": true,
          "internalType": "address",
          "name": "approved",
          "type": "address"
        },
        {
          "indexed": true,
          "internalType": "uint256",
          "name": "tokenId",
          "type": "uint256"
        }
      ],
      "name": "Approval",
      "type": "event"
    },
    {
      "anonymous": false,
      "inputs": [
        {
          "indexed": true,
          "internalType": "address",
          "name": "owner",
          "type": "address"
        },
        {
          "indexed": true,
          "internalType": "address",
          "name": "operator",
          "type": "address"
        },
        {
          "indexed": false,
          "internalType": "bool",
          "name": "approved",
          "type": "bool"
        }
      ],
      "name": "ApprovalForAll",
      "type": "event"
    },
    {
      "anonymous": false,
      "inputs": [],
      "name": "EIP712DomainChanged",
      "type": "event"
    },
    {
      "anonymous": false,
      "inputs": [
        {
          "indexed": true,
          "internalType": "uint256",
          "name": "tokenId",
          "type": "uint256"
        }
      ],
      "name": "KYCVerified",
      "type": "event"
    },
    {
      "anonymous": false,
      "inputs": [
        {
          "indexed": true,
          "internalType": "address",
          "name": "previousOwner",
          "type": "address"
        },
        {
          "indexed": true,
          "internalType": "address",
          "name": "newOwner",
          "type": "address"
        }
      ],
      "name": "OwnershipTransferred",
      "type": "event"
    },
    {
      "anonymous": false,
      "inputs": [
        {
          "indexed": true,
          "internalType": "uint256",
          "name": "tokenId",
          "type": "uint256"
        },
        {
          "indexed": false,
          "internalType": "uint256",
          "name": "newScore",
          "type": "uint256"
        }
      ],
      "name": "ScoreUpdated",
      "type": "event"
    },
    {
      "anonymous": false,
      "inputs": [
        {
          "indexed": true,
          "internalType": "address",
          "name": "from",
          "type": "address"
        },
        {
          "indexed": true,
          "internalType": "address",
          "name": "to",
          "type": "address"
        },
        {
          "indexed": true,
          "internalType": "uint256",
          "name": "tokenId",
          "type": "uint256"
        }
      ],
      "name": "Transfer",
      "type": "event"
    },
    {
      "inputs": [
        {
          "internalType": "uint256",
          "name": "",
          "type": "uint256"
        }
      ],
      "name": "agentProfiles",
      "outputs": [
        {
          "internalType": "string",
          "name": "ensName",
          "type": "string"
        },
        {
          "internalType": "uint256",
          "name": "creditScore",
          "type": "uint256"
        },
        {
          "internalType": "uint256",
          "name": "totalBorrowed",
          "type": "uint256"
        },
        {
          "internalType": "uint256",
          "name": "totalRepaid",
          "type": "uint256"
        },
        {
          "internalType": "bool",
          "name": "isVerified",
          "type": "bool"
        }
      ],
      "stateMutability": "view",
      "type": "function"
    },
    {
      "inputs": [
        {
          "internalType": "address",
          "name": "to",
          "type": "address"
        },
        {
          "internalType": "uint256",
          "name": "tokenId",
          "type": "uint256"
        }
      ],
      "name": "approve",
      "outputs": [],
      "stateMutability": "nonpayable",
      "type": "function"
    },
    {
      "inputs": [
        {
          "internalType": "address",
          "name": "owner",
          "type": "address"
        }
      ],
      "name": "balanceOf",
      "outputs": [
        {
          "internalType": "uint256",
          "name": "",
          "type": "uint256"
        }
      ],
      "stateMutability": "view",
      "type": "function"
    },
    {
      "inputs": [],
      "name": "bitgoValidator",
      "outputs": [
        {
          "internalType": "address",
          "name": "",
          "type": "address"
        }
      ],
      "stateMutability": "view",
      "type": "function"
    },
    {
      "inputs": [],
      "name": "eip712Domain",
      "outputs": [
        {
          "internalType": "bytes1",
          "name": "fields",
          "type": "bytes1"
        },
        {
          "internalType": "string",
          "name": "name",
          "type": "string"
        },
        {
          "internalType": "string",
          "name": "version",
          "type": "string"
        },
        {
          "internalType": "uint256",
          "name": "chainId",
          "type": "uint256"
        },
        {
          "internalType": "address",
          "name": "verifyingContract",
          "type": "address"
        },
        {
          "internalType": "bytes32",
          "name": "salt",
          "type": "bytes32"
        },
        {
          "internalType": "uint256[]",
          "name": "extensions",
          "type": "uint256[]"
        }
      ],
      "stateMutability": "view",
      "type": "function"
    },
    {
      "inputs": [
        {
          "internalType": "uint256",
          "name": "tokenId",
          "type": "uint256"
        }
      ],
      "name": "getApproved",
      "outputs": [
        {
          "internalType": "address",
          "name": "",
          "type": "address"
        }
      ],
      "stateMutability": "view",
      "type": "function"
    },
    {
      "inputs": [
        {
          "internalType": "address",
          "name": "owner",
          "type": "address"
        },
        {
          "internalType": "address",
          "name": "operator",
          "type": "address"
        }
      ],
      "name": "isApprovedForAll",
      "outputs": [
        {
          "internalType": "bool",
          "name": "",
          "type": "bool"
        }
      ],
      "stateMutability": "view",
      "type": "function"
    },
    {
      "inputs": [],
      "name": "name",
      "outputs": [
        {
          "internalType": "string",
          "name": "",
          "type": "string"
        }
      ],
      "stateMutability": "view",
      "type": "function"
    },
    {
      "inputs": [],
      "name": "owner",
      "outputs": [
        {
          "internalType": "address",
          "name": "",
          "type": "address"
        }
      ],
      "stateMutability": "view",
      "type": "function"
    },
    {
      "inputs": [
        {
          "internalType": "uint256",
          "name": "tokenId",
          "type": "uint256"
        }
      ],
      "name": "ownerOf",
      "outputs": [
        {
          "internalType": "address",
          "name": "",
          "type": "address"
        }
      ],
      "stateMutability": "view",
      "type": "function"
    },
    {
      "inputs": [
        {
          "internalType": "string",
          "name": "_ensName",
          "type": "string"
        }
      ],
      "name": "registerAgent",
      "outputs": [],
      "stateMutability": "nonpayable",
      "type": "function"
    },
    {
      "inputs": [],
      "name": "renounceOwnership",
      "outputs": [],
      "stateMutability": "nonpayable",
      "type": "function"
    },
    {
      "inputs": [
        {
          "internalType": "address",
          "name": "from",
          "type": "address"
        },
        {
          "internalType": "address",
          "name": "to",
          "type": "address"
        },
        {
          "internalType": "uint256",
          "name": "tokenId",
          "type": "uint256"
        }
      ],
      "name": "safeTransferFrom",
      "outputs": [],
      "stateMutability": "nonpayable",
      "type": "function"
    },
    {
      "inputs": [
        {
          "internalType": "address",
          "name": "from",
          "type": "address"
        },
        {
          "internalType": "address",
          "name": "to",
          "type": "address"
        },
        {
          "internalType": "uint256",
          "name": "tokenId",
          "type": "uint256"
        },
        {
          "internalType": "bytes",
          "name": "data",
          "type": "bytes"
        }
      ],
      "name": "safeTransferFrom",
      "outputs": [],
      "stateMutability": "nonpayable",
      "type": "function"
    },
    {
      "inputs": [
        {
          "internalType": "address",
          "name": "operator",
          "type": "address"
        },
        {
          "internalType": "bool",
          "name": "approved",
          "type": "bool"
        }
      ],
      "name": "setApprovalForAll",
      "outputs": [],
      "stateMutability": "nonpayable",
      "type": "function"
    },
    {
      "inputs": [
        {
          "internalType": "bool",
          "name": "_approved",
          "type": "bool"
        },
        {
          "internalType": "bytes",
          "name": "_signature",
          "type": "bytes"
        }
      ],
      "name": "submitKYCSignature",
      "outputs": [],
      "stateMutability": "nonpayable",
      "type": "function"
    },
    {
      "inputs": [
        {
          "internalType": "bytes4",
          "name": "interfaceId",
          "type": "bytes4"
        }
      ],
      "name": "supportsInterface",
      "outputs": [
        {
          "internalType": "bool",
          "name": "",
          "type": "bool"
        }
      ],
      "stateMutability": "view",
      "type": "function"
    },
    {
      "inputs": [],
      "name": "symbol",
      "outputs": [
        {
          "internalType": "string",
          "name": "",
          "type": "string"
        }
      ],
      "stateMutability": "view",
      "type": "function"
    },
    {
      "inputs": [
        {
          "internalType": "uint256",
          "name": "tokenId",
          "type": "uint256"
        }
      ],
      "name": "tokenURI",
      "outputs": [
        {
          "internalType": "string",
          "name": "",
          "type": "string"
        }
      ],
      "stateMutability": "view",
      "type": "function"
    },
    {
      "inputs": [
        {
          "internalType": "address",
          "name": "from",
          "type": "address"
        },
        {
          "internalType": "address",
          "name": "to",
          "type": "address"
        },
        {
          "internalType": "uint256",
          "name": "tokenId",
          "type": "uint256"
        }
      ],
      "name": "transferFrom",
      "outputs": [],
      "stateMutability": "nonpayable",
      "type": "function"
    },
    {
      "inputs": [
        {
          "internalType": "address",
          "name": "newOwner",
          "type": "address"
        }
      ],
      "name": "transferOwnership",
      "outputs": [],
      "stateMutability": "nonpayable",
      "type": "function"
    },
    {
      "inputs": [
        {
          "internalType": "uint256",
          "name": "_tokenId",
          "type": "uint256"
        },
        {
          "internalType": "uint256",
          "name": "_newScore",
          "type": "uint256"
        }
      ],
      "name": "updateCreditScore",
      "outputs": [],
      "stateMutability": "nonpayable",
      "type": "function"
    },
    {
      "inputs": [
        {
          "internalType": "address",
          "name": "",
          "type": "address"
        }
      ],
      "name": "userToAgentId",
      "outputs": [
        {
          "internalType": "uint256",
          "name": "",
          "type": "uint256"
        }
      ],
      "stateMutability": "view",
      "type": "function"
    }
  ],
  "bytecode": "0x61016060405234801562000011575f80fd5b5060405162002294380380620022948339810160408190526200003491620002bb565b336040518060400160405280600c81526020016b15149150d41c9bdd1bd8dbdb60a21b815250604051806040016040528060018152602001603160f81b8152506040518060400160405280600d81526020016c15149150c81059d95b9d081251609a1b815250604051806040016040528060048152602001635452454360e01b815250815f9081620000c7919062000388565b506001620000d6828262000388565b50620000e891508390506006620001f0565b61012052620000f9816007620001f0565b61014052815160208084019190912060e052815190820120610100524660a0526200018660e05161010051604080517f8b73c3c69bb8fe3d512ecc4cf759cc79239f7b179b0ffacaa9a75d522b39400f60208201529081019290925260608201524660808201523060a08201525f9060c00160405160208183030381529060405280519060200120905090565b60805250503060c0526001600160a01b038116620001be57604051631e4fbdf760e01b81525f60048201526024015b60405180910390fd5b620001c98162000228565b50600c80546001600160a01b0319166001600160a01b0392909216919091179055620004c6565b5f6020835110156200020f57620002078362000279565b905062000222565b816200021c848262000388565b5060ff90505b92915050565b600880546001600160a01b038381166001600160a01b0319831681179093556040519116919082907f8be0079c531659141344cd1fd0a4f28419497f9722a3daafe3b4186f6b6457e0905f90a35050565b5f80829050601f81511115620002a6578260405163305a27a960e01b8152600401620001b5919062000454565b8051620002b382620004a2565b179392505050565b5f60208284031215620002cc575f80fd5b81516001600160a01b0381168114620002e3575f80fd5b9392505050565b634e487b7160e01b5f52604160045260245ffd5b600181811c908216806200031357607f821691505b6020821081036200033257634e487b7160e01b5f52602260045260245ffd5b50919050565b601f8211156200038357805f5260205f20601f840160051c810160208510156200035f5750805b601f840160051c820191505b8181101562000380575f81556001016200036b565b50505b505050565b81516001600160401b03811115620003a457620003a4620002ea565b620003bc81620003b58454620002fe565b8462000338565b602080601f831160018114620003f2575f8415620003da5750858301515b5f19600386901b1c1916600185901b1785556200044c565b5f85815260208120601f198616915b82811015620004225788860151825594840194600190910190840162000401565b50858210156200044057878501515f19600388901b60f8161c191681555b505060018460011b0185555b505050505050565b5f602080835283518060208501525f5b81811015620004825785810183015185820160400152820162000464565b505f604082860101526040601f19601f8301168501019250505092915050565b8051602080830151919081101562000332575f1960209190910360031b1b16919050565b60805160a05160c05160e051610100516101205161014051611d7c620005185f395f610ced01525f610cbb01525f61126101525f61123901525f61119401525f6111be01525f6111e80152611d7c5ff3fe608060405234801561000f575f80fd5b5060043610610148575f3560e01c8063715018a6116100bf578063a22cb46511610079578063a22cb465146102db578063b88d4fde146102ee578063b91f637714610301578063c87b56dd14610314578063e985e9c514610327578063f2fde38b1461033a575f80fd5b8063715018a61461026d5780637e093109146102755780637f43cf181461029457806384b0196e146102a75780638da5cb5b146102c257806395d89b41146102d3575f80fd5b806323b872dd1161011057806323b872dd146101ed5780632d2a958514610200578063328584a21461021357806342842e0e146102265780636352211e1461023957806370a082311461024c575f80fd5b806301ffc9a71461014c57806306fdde0314610174578063081812fc14610189578063095ea7b3146101b45780630e7c52cd146101c9575b5f80fd5b61015f61015a36600461173b565b61034d565b60405190151581526020015b60405180910390f35b61017c61039e565b60405161016b91906117a3565b61019c6101973660046117b5565b61042d565b6040516001600160a01b03909116815260200161016b565b6101c76101c23660046117e7565b610454565b005b6101dc6101d73660046117b5565b610463565b60405161016b95949392919061180f565b6101c76101fb366004611847565b61051a565b6101c761020e366004611907565b6105a8565b6101c7610221366004611979565b6106ef565b6101c7610234366004611847565b61086f565b61019c6102473660046117b5565b61088e565b61025f61025a3660046119c4565b610898565b60405190815260200161016b565b6101c76108dd565b61025f6102833660046119c4565b600b6020525f908152604090205481565b6101c76102a23660046119dd565b6108f0565b6102af61094b565b60405161016b97969594939291906119fd565b6008546001600160a01b031661019c565b61017c61098d565b6101c76102e9366004611a94565b61099c565b6101c76102fc366004611ac5565b6109a7565b600c5461019c906001600160a01b031681565b61017c6103223660046117b5565b6109bf565b61015f610335366004611b29565b610a30565b6101c76103483660046119c4565b610a5d565b5f6001600160e01b031982166380ac58cd60e01b148061037d57506001600160e01b03198216635b5e139f60e01b145b8061039857506301ffc9a760e01b6001600160e01b03198316145b92915050565b60605f80546103ac90611b51565b80601f01602080910402602001604051908101604052809291908181526020018280546103d890611b51565b80156104235780601f106103fa57610100808354040283529160200191610423565b820191905f5260205f20905b81548152906001019060200180831161040657829003601f168201915b5050505050905090565b5f61043782610a9a565b505f828152600460205260409020546001600160a01b0316610398565b61045f828233610ad2565b5050565b600a6020525f908152604090208054819061047d90611b51565b80601f01602080910402602001604051908101604052809291908181526020018280546104a990611b51565b80156104f45780601f106104cb576101008083540402835291602001916104f4565b820191905f5260205f20905b8154815290600101906020018083116104d757829003601f168201915b505050506001830154600284015460038501546004909501549394919390925060ff1685565b6001600160a01b03821661054857604051633250574960e11b81525f60048201526024015b60405180910390fd5b5f610554838333610adf565b9050836001600160a01b0316816001600160a01b0316146105a2576040516364283d7b60e01b81526001600160a01b038086166004830152602482018490528216604482015260640161053f565b50505050565b335f908152600b6020526040902054156106045760405162461bcd60e51b815260206004820152601d60248201527f596f7520616c7265616479206861766520616e204167656e74204e4654000000604482015260640161053f565b60098054905f61061383611b89565b90915550506009546106253382610b81565b335f908152600b60209081526040808320849055805160a0810182528581528083018490528082018490526060810184905260808101849052848452600a909252909120815181906106779082611bf1565b50602082015160018201556040808301516002830155606083015160038301556080909201516004909101805460ff191691151591909117905551819033907f77284e1a75d149ef26161b755b08a0af1ea0723010e19e79bce5626d693581f8906106e39086906117a3565b60405180910390a35050565b335f908152600b6020526040812054908190036107435760405162461bcd60e51b8152602060048201526012602482015271139bc81059d95b9d0813919508199bdd5b9960721b604482015260640161053f565b604080517f161ccaa827dd6f375028446026e5fa1495223db0d292c952cdd31a9d0348bd656020820152339181019190915283151560608201525f906080016040516020818303038152906040528051906020012090505f6107a482610be2565b90505f6107b18286610c0e565b600c549091506001600160a01b038083169116146108245760405162461bcd60e51b815260206004820152602a60248201527f496e76616c696420426974476f205369676e617475726521205363616d6d6572604482015269103232ba32b1ba32b21760b11b606482015260840161053f565b5f848152600a6020526040808220600401805460ff19168915151790555185917f290daf7816d0d3909f65505b11f7a0032f99b1bf15e11ba80623a72a0341aa7a91a2505050505050565b61088983838360405180602001604052805f8152506109a7565b505050565b5f61039882610a9a565b5f6001600160a01b0382166108c2576040516322718ad960e21b81525f600482015260240161053f565b506001600160a01b03165f9081526003602052604090205490565b6108e5610c36565b6108ee5f610c63565b565b6108f8610c36565b5f828152600a6020526040908190206001018290555182907fefd5a7f141ae02cd40bc84ffe6ebb58811cb61dfd017746842a005c78bfed8529061093f9084815260200190565b60405180910390a25050565b5f6060805f805f606061095c610cb4565b610964610ce6565b604080515f80825260208201909252600f60f81b9b939a50919850469750309650945092509050565b6060600180546103ac90611b51565b61045f338383610d13565b6109b284848461051a565b6105a23385858585610dda565b60606109ca82610a9a565b505f6109e060408051602081019091525f815290565b90505f8151116109fe5760405180602001604052805f815250610a29565b80610a0884610f02565b604051602001610a19929190611cad565b6040516020818303038152906040525b9392505050565b6001600160a01b039182165f90815260056020908152604080832093909416825291909152205460ff1690565b610a65610c36565b6001600160a01b038116610a8e57604051631e4fbdf760e01b81525f600482015260240161053f565b610a9781610c63565b50565b5f818152600260205260408120546001600160a01b03168061039857604051637e27328960e01b81526004810184905260240161053f565b6108898383836001610f92565b5f828152600260205260408120546001600160a01b0316801580610b0a57506001600160a01b038516155b610b6d5760405162461bcd60e51b815260206004820152602e60248201527f54524543204964656e7469747920697320536f756c626f756e6420616e64206360448201526d616e6e6f7420626520736f6c642160901b606482015260840161053f565b610b78858585611096565b95945050505050565b6001600160a01b038216610baa57604051633250574960e11b81525f600482015260240161053f565b5f610bb683835f610adf565b90506001600160a01b03811615610889576040516339e3563760e11b81525f600482015260240161053f565b5f610398610bee611188565b8360405161190160f01b8152600281019290925260228201526042902090565b5f805f80610c1c86866112b1565b925092509250610c2c82826112fa565b5090949350505050565b6008546001600160a01b031633146108ee5760405163118cdaa760e01b815233600482015260240161053f565b600880546001600160a01b038381166001600160a01b0319831681179093556040519116919082907f8be0079c531659141344cd1fd0a4f28419497f9722a3daafe3b4186f6b6457e0905f90a35050565b6060610ce17f000000000000000000000000000000000000000000000000000000000000000060066113b2565b905090565b6060610ce17f000000000000000000000000000000000000000000000000000000000000000060076113b2565b6001600160a01b038316610d3c5760405163a9fbf51f60e01b81525f600482015260240161053f565b6001600160a01b038216610d6e57604051630b61174360e31b81526001600160a01b038316600482015260240161053f565b6001600160a01b038381165f81815260056020908152604080832094871680845294825291829020805460ff191686151590811790915591519182527f17307eab39ab6107e8899845ad3d59bd9653f200f220920489ca2b5937696c31910160405180910390a3505050565b6001600160a01b0383163b15610efb57604051630a85bd0160e11b81526001600160a01b0384169063150b7a0290610e1c908890889087908790600401611cdb565b6020604051808303815f875af1925050508015610e56575060408051601f3d908101601f19168201909252610e5391810190611d17565b60015b610ebd573d808015610e83576040519150601f19603f3d011682016040523d82523d5f602084013e610e88565b606091505b5080515f03610eb557604051633250574960e11b81526001600160a01b038516600482015260240161053f565b805160208201fd5b6001600160e01b03198116630a85bd0160e11b14610ef957604051633250574960e11b81526001600160a01b038516600482015260240161053f565b505b5050505050565b60605f610f0e8361145b565b60010190505f8167ffffffffffffffff811115610f2d57610f2d611880565b6040519080825280601f01601f191660200182016040528015610f57576020820181803683370190505b5090508181016020015b5f19016f181899199a1a9b1b9c1cb0b131b232b360811b600a86061a8153600a8504945084610f6157509392505050565b8080610fa657506001600160a01b03821615155b15611067575f610fb584610a9a565b90506001600160a01b03831615801590610fe15750826001600160a01b0316816001600160a01b031614155b8015610ff45750610ff28184610a30565b155b1561101d5760405163a9fbf51f60e01b81526001600160a01b038416600482015260240161053f565b81156110655783856001600160a01b0316826001600160a01b03167f8c5be1e5ebec7d5bd14f71427d1e84f3dd0314c0f7b2291e5b200ac8c7c3b92560405160405180910390a45b505b50505f90815260046020526040902080546001600160a01b0319166001600160a01b0392909216919091179055565b5f828152600260205260408120546001600160a01b03908116908316156110c2576110c2818486611532565b6001600160a01b038116156110fc576110dd5f855f80610f92565b6001600160a01b0381165f90815260036020526040902080545f190190555b6001600160a01b0385161561112a576001600160a01b0385165f908152600360205260409020805460010190555b5f8481526002602052604080822080546001600160a01b0319166001600160a01b0389811691821790925591518793918516917fddf252ad1be2c89b69c2b068fc378daa952ba7f163c4a11628f55a4df523b3ef91a4949350505050565b5f306001600160a01b037f0000000000000000000000000000000000000000000000000000000000000000161480156111e057507f000000000000000000000000000000000000000000000000000000000000000046145b1561120a57507f000000000000000000000000000000000000000000000000000000000000000090565b610ce1604080517f8b73c3c69bb8fe3d512ecc4cf759cc79239f7b179b0ffacaa9a75d522b39400f60208201527f0000000000000000000000000000000000000000000000000000000000000000918101919091527f000000000000000000000000000000000000000000000000000000000000000060608201524660808201523060a08201525f9060c00160405160208183030381529060405280519060200120905090565b5f805f83516041036112e8576020840151604085015160608601515f1a6112da88828585611596565b9550955095505050506112f3565b505081515f91506002905b9250925092565b5f82600381111561130d5761130d611d32565b03611316575050565b600182600381111561132a5761132a611d32565b036113485760405163f645eedf60e01b815260040160405180910390fd5b600282600381111561135c5761135c611d32565b0361137d5760405163fce698f760e01b81526004810182905260240161053f565b600382600381111561139157611391611d32565b0361045f576040516335e2f38360e21b81526004810182905260240161053f565b606060ff83146113cc576113c58361165e565b9050610398565b8180546113d890611b51565b80601f016020809104026020016040519081016040528092919081815260200182805461140490611b51565b801561144f5780601f106114265761010080835404028352916020019161144f565b820191905f5260205f20905b81548152906001019060200180831161143257829003601f168201915b50505050509050610398565b5f8072184f03e93ff9f4daa797ed6e38ed64bf6a1f0160401b83106114995772184f03e93ff9f4daa797ed6e38ed64bf6a1f0160401b830492506040015b6d04ee2d6d415b85acef810000000083106114c5576d04ee2d6d415b85acef8100000000830492506020015b662386f26fc1000083106114e357662386f26fc10000830492506010015b6305f5e10083106114fb576305f5e100830492506008015b612710831061150f57612710830492506004015b60648310611521576064830492506002015b600a83106103985760010192915050565b61153d83838361169b565b610889576001600160a01b03831661156b57604051637e27328960e01b81526004810182905260240161053f565b60405163177e802f60e01b81526001600160a01b03831660048201526024810182905260440161053f565b5f80807f7fffffffffffffffffffffffffffffff5d576e7357a4501ddfe92f46681b20a08411156115cf57505f91506003905082611654565b604080515f808252602082018084528a905260ff891692820192909252606081018790526080810186905260019060a0016020604051602081039080840390855afa158015611620573d5f803e3d5ffd5b5050604051601f1901519150506001600160a01b03811661164b57505f925060019150829050611654565b92505f91508190505b9450945094915050565b60605f61166a836116ff565b6040805160208082528183019092529192505f91906020820181803683375050509182525060208101929092525090565b5f6001600160a01b038316158015906116f75750826001600160a01b0316846001600160a01b031614806116d457506116d48484610a30565b806116f757505f828152600460205260409020546001600160a01b038481169116145b949350505050565b5f60ff8216601f81111561039857604051632cd44ac360e21b815260040160405180910390fd5b6001600160e01b031981168114610a97575f80fd5b5f6020828403121561174b575f80fd5b8135610a2981611726565b5f5b83811015611770578181015183820152602001611758565b50505f910152565b5f815180845261178f816020860160208601611756565b601f01601f19169290920160200192915050565b602081525f610a296020830184611778565b5f602082840312156117c5575f80fd5b5035919050565b80356001600160a01b03811681146117e2575f80fd5b919050565b5f80604083850312156117f8575f80fd5b611801836117cc565b946020939093013593505050565b60a081525f61182160a0830188611778565b905085602083015284604083015283606083015282151560808301529695505050505050565b5f805f60608486031215611859575f80fd5b611862846117cc565b9250611870602085016117cc565b9150604084013590509250925092565b634e487b7160e01b5f52604160045260245ffd5b5f67ffffffffffffffff808411156118ae576118ae611880565b604051601f8501601f19908116603f011681019082821181831017156118d6576118d6611880565b816040528093508581528686860111156118ee575f80fd5b858560208301375f602087830101525050509392505050565b5f60208284031215611917575f80fd5b813567ffffffffffffffff81111561192d575f80fd5b8201601f8101841361193d575f80fd5b6116f784823560208401611894565b803580151581146117e2575f80fd5b5f82601f83011261196a575f80fd5b610a2983833560208501611894565b5f806040838503121561198a575f80fd5b6119938361194c565b9150602083013567ffffffffffffffff8111156119ae575f80fd5b6119ba8582860161195b565b9150509250929050565b5f602082840312156119d4575f80fd5b610a29826117cc565b5f80604083850312156119ee575f80fd5b50508035926020909101359150565b60ff60f81b881681525f602060e06020840152611a1d60e084018a611778565b8381036040850152611a2f818a611778565b606085018990526001600160a01b038816608086015260a0850187905284810360c0860152855180825260208088019350909101905f5b81811015611a8257835183529284019291840191600101611a66565b50909c9b505050505050505050505050565b5f8060408385031215611aa5575f80fd5b611aae836117cc565b9150611abc6020840161194c565b90509250929050565b5f805f8060808587031215611ad8575f80fd5b611ae1856117cc565b9350611aef602086016117cc565b925060408501359150606085013567ffffffffffffffff811115611b11575f80fd5b611b1d8782880161195b565b91505092959194509250565b5f8060408385031215611b3a575f80fd5b611b43836117cc565b9150611abc602084016117cc565b600181811c90821680611b6557607f821691505b602082108103611b8357634e487b7160e01b5f52602260045260245ffd5b50919050565b5f60018201611ba657634e487b7160e01b5f52601160045260245ffd5b5060010190565b601f82111561088957805f5260205f20601f840160051c81016020851015611bd25750805b601f840160051c820191505b81811015610efb575f8155600101611bde565b815167ffffffffffffffff811115611c0b57611c0b611880565b611c1f81611c198454611b51565b84611bad565b602080601f831160018114611c52575f8415611c3b5750858301515b5f19600386901b1c1916600185901b178555610ef9565b5f85815260208120601f198616915b82811015611c8057888601518255948401946001909101908401611c61565b5085821015611c9d57878501515f19600388901b60f8161c191681555b5050505050600190811b01905550565b5f8351611cbe818460208801611756565b835190830190611cd2818360208801611756565b01949350505050565b6001600160a01b03858116825284166020820152604081018390526080606082018190525f90611d0d90830184611778565b9695505050505050565b5f60208284031215611d27575f80fd5b8151610a2981611726565b634e487b7160e01b5f52602160045260245ffdfea2646970667358221220957d1522a18fe2a04b376d0f97c5ade3a2156685c1a63ba497e09f05e9b1b03b64736f6c63430008180033",
  "linkReferences": {},
  "deployedLinkReferences": {}
}