{
  "_format": "hh-sol-artifact-1",
  "contractName": "TRECCSubnameRegistrar",
  "sourceName": "contracts/TRECCSubnameRegistrar.sol",
  "abi": [
    {
      "anonymous": false,
      "inputs": [
        {
          "indexed": false,
          "internalType": "string",
          "name": "label",
          "type": "string"
        },
        {
          "indexed": true,
          "internalType": "address",
          "name": "owner",
          "type": "address"
        },
        {
          "indexed": false,
          "internalType": "bytes32",
          "name": "node",
          "type": "bytes32"
        }
      ],
      "name": "SubnameRegistered",
      "type": "event"
    },
    {
      "inputs": [],
      "name": "NAME_WRAPPER",
      "outputs": [
        {
          "internalType": "contract INameWrapper",
          "name": "",
          "type": "address"
        }
      ],
      "stateMutability": "view",
      "type": "function"
    },
    {
      "inputs": [],
      "name": "RESOLVER",
      "outputs": [
        {
          "internalType": "address",
          "name": "",
          "type": "address"
        }
      ],
      "stateMutability": "view",
      "type": "function"
    },
    {
      "inputs": [],
      "name": "TRECC_NODE",
      "outputs": [
        {
          "internalType": "bytes32",
          "name": "",
          "type": "bytes32"
        }
      ],
      "stateMutability": "view",
      "type": "function"
    },
    {
      "inputs": [
        {
          "internalType": "bytes32",
          "name": "",
          "type": "bytes32"
        }
      ],
      "name": "claimed",
      "outputs": [
        {
          "internalType": "bool",
          "name": "",
          "type": "bool"
        }
      ],
      "stateMutability": "view",
      "type": "function"
    },
    {
      "inputs": [
        {
          "internalType": "bytes32",
          "name": "parentNode",
          "type": "bytes32"
        },
        {
          "internalType": "string",
          "name": "label",
          "type": "string"
        }
      ],
      "name": "register",
      "outputs": [],
      "stateMutability": "nonpayable",
      "type": "function"
    }
  ],
  "bytecode": "0x608060405234801561000f575f80fd5b506109c78061001d5f395ff3fe608060405234801561000f575f80fd5b5060043610610055575f3560e01c8063192cf07d146100595780634d77532d1461007757806373c5eca214610095578063cc3c0f06146100b3578063cf2d31fb146100e3575b5f80fd5b6100616100ff565b60405161006e9190610469565b60405180910390f35b61007f610117565b60405161008c91906104a2565b60405180910390f35b61009d61012f565b6040516100aa91906104d3565b60405180910390f35b6100cd60048036038101906100c8919061051e565b610155565b6040516100da9190610563565b60405180910390f35b6100fd60048036038101906100f891906105dd565b610171565b005b730635513f179d50a207757e05759cbd106d7dfce881565b73e99638b40e4fff0129d56f03b55b6bbc4bbe49b581565b7fb7de80fcb6135fa4fc7e65dd78473942b8d9abe58f147a4a79d02e34266f11945f1b81565b5f602052805f5260405f205f915054906101000a900460ff1681565b7fb7de80fcb6135fa4fc7e65dd78473942b8d9abe58f147a4a79d02e34266f11945f1b83146101d5576040517f08c379a00000000000000000000000000000000000000000000000000000000081526004016101cc90610694565b60405180910390fd5b5f828290501161021a576040517f08c379a0000000000000000000000000000000000000000000000000000000008152600401610211906106fc565b60405180910390fd5b5f828260405161022b929190610756565b604051809103902090505f808281526020019081526020015f205f9054906101000a900460ff1615610292576040517f08c379a0000000000000000000000000000000000000000000000000000000008152600401610289906107b8565b60405180910390fd5b60015f808381526020019081526020015f205f6101000a81548160ff0219169083151502179055505f730635513f179d50a207757e05759cbd106d7dfce873ffffffffffffffffffffffffffffffffffffffff166324c1af447fb7de80fcb6135fa4fc7e65dd78473942b8d9abe58f147a4a79d02e34266f11945f1b86863373e99638b40e4fff0129d56f03b55b6bbc4bbe49b55f8067ffffffffffffffff6040518963ffffffff1660e01b81526004016103549897969594939291906108ac565b6020604051808303815f875af1158015610370573d5f803e3d5ffd5b505050506040513d601f19601f820116820180604052508101906103949190610936565b90503373ffffffffffffffffffffffffffffffffffffffff167f499c68c425899cdfafad71a16f99dfe50ca86e149da507e1dc7ee15a7631a58f8585846040516103e093929190610961565b60405180910390a25050505050565b5f73ffffffffffffffffffffffffffffffffffffffff82169050919050565b5f819050919050565b5f61043161042c610427846103ef565b61040e565b6103ef565b9050919050565b5f61044282610417565b9050919050565b5f61045382610438565b9050919050565b61046381610449565b82525050565b5f60208201905061047c5f83018461045a565b92915050565b5f61048c826103ef565b9050919050565b61049c81610482565b82525050565b5f6020820190506104b55f830184610493565b92915050565b5f819050919050565b6104cd816104bb565b82525050565b5f6020820190506104e65f8301846104c4565b92915050565b5f80fd5b5f80fd5b6104fd816104bb565b8114610507575f80fd5b50565b5f81359050610518816104f4565b92915050565b5f60208284031215610533576105326104ec565b5b5f6105408482850161050a565b91505092915050565b5f8115159050919050565b61055d81610549565b82525050565b5f6020820190506105765f830184610554565b92915050565b5f80fd5b5f80fd5b5f80fd5b5f8083601f84011261059d5761059c61057c565b5b8235905067ffffffffffffffff8111156105ba576105b9610580565b5b6020830191508360018202830111156105d6576105d5610584565b5b9250929050565b5f805f604084860312156105f4576105f36104ec565b5b5f6106018682870161050a565b935050602084013567ffffffffffffffff811115610622576106216104f0565b5b61062e86828701610588565b92509250509250925092565b5f82825260208201905092915050565b7f77726f6e6720706172656e7400000000000000000000000000000000000000005f82015250565b5f61067e600c8361063a565b91506106898261064a565b602082019050919050565b5f6020820190508181035f8301526106ab81610672565b9050919050565b7f656d707479206c6162656c0000000000000000000000000000000000000000005f82015250565b5f6106e6600b8361063a565b91506106f1826106b2565b602082019050919050565b5f6020820190508181035f830152610713816106da565b9050919050565b5f81905092915050565b828183375f83830152505050565b5f61073d838561071a565b935061074a838584610724565b82840190509392505050565b5f610762828486610732565b91508190509392505050565b7f616c726561647920636c61696d656400000000000000000000000000000000005f82015250565b5f6107a2600f8361063a565b91506107ad8261076e565b602082019050919050565b5f6020820190508181035f8301526107cf81610796565b9050919050565b5f601f19601f8301169050919050565b5f6107f1838561063a565b93506107fe838584610724565b610807836107d6565b840190509392505050565b5f819050919050565b5f67ffffffffffffffff82169050919050565b5f61084861084361083e84610812565b61040e565b61081b565b9050919050565b6108588161082e565b82525050565b5f63ffffffff82169050919050565b5f61088761088261087d84610812565b61040e565b61085e565b9050919050565b6108978161086d565b82525050565b6108a68161081b565b82525050565b5f60e0820190506108bf5f83018b6104c4565b81810360208301526108d281898b6107e6565b90506108e16040830188610493565b6108ee6060830187610493565b6108fb608083018661084f565b61090860a083018561088e565b61091560c083018461089d565b9998505050505050505050565b5f81519050610930816104f4565b92915050565b5f6020828403121561094b5761094a6104ec565b5b5f61095884828501610922565b91505092915050565b5f6040820190508181035f83015261097a8185876107e6565b905061098960208301846104c4565b94935050505056fea26469706673582212203b17b0e75fba1a6207992b2d656a9cf34312ab6f86e900ad475856d3af45307d64736f6c63430008180033",
  "linkReferences": {},
  "deployedLinkReferences": {}
}